:020000040800F2
:10000000F0040020D5000008D90C0008850B00087A
:1000100000000000000000000000000000000000E0
:10002000000000000000000000000000DD0C0008DF
:100030000000000000000000DB0C0008F30C0008CA
:10004000E7000008E7000008E7000008E7000008F4
:10005000E7000008E7000008E7000008E7000008E4
:10006000E7000008E7000008E7000008E7000008D4
:10007000E7000008E7000008E7000008E7000008C4
:10008000E7000008E7000008E7000008E7000008B4
:10009000E7000008E7000008E7000008E7000008A4
:1000A000E7000008E7000008E7000008E700000894
:1000B000E7000008111F0008E7000008E70000083B
:1000C0000348854600F08EF80048004741210008AB
:1000D000F00400200448804704480047FEE7FEE79C
:1000E000FEE7FEE7FEE7FEE73F0D0008C10000085F
:1000F00030B50B46014600202022012409E00D46C0
:10010000D5409D4205D31D469540491B2546954047
:1001100040191546521E002DF1DC30BDF0B51FB45C
:100120000646002082B005464024019100901BE065
:10013000019922460F46304600F020F8049A059BAC
:10014000801A994110D310461946224600F039F81A
:10015000361A8F410197224601200021009F00F0AE
:1001600030F838184D4100902046641E0028DFDC2E
:10017000019B00982946324607B0F0BD10B5202AF1
:1001800004DB0846203AD040002110BD0B46D34086
:10019000D0402024A21A91400843194610BDD2B283
:1001A00001E00270401C491EFBD270470022F6E7B6
:1001B00010B513460A4604461946FFF7F0FF2046DD
:1001C00010BD10B5202A04DB0146203A91400020E2
:1001D00010BD914020239C1A0346E34019439040F0
:1001E00010BD0000064C0125064E05E0E36807CC73
:1001F0002B430C3C98471034B442F7D3FFF764FF0D
:10020000CC240008EC24000870B5044600F0C6F8C1
:100210000546601C02D004480078241800F0BEF89F
:10022000401BA042FAD370BD44000020F8B5002363
:1002300093E0224601249C40A44622407ED04C6894
:10024000022C01D0122C0CD1DC08A40027183C6A27
:100250005D07ED0E0F26AE40B4430E69AE40264357
:100260003E6205685E000324B4400F79A543BF07D2
:10027000BF0FB7402F4307604D68012D05D0022DF9
:1002800003D0112D01D0122D0ED18568CF68A54362
:10029000B7402F43876047686546AF430D79ED0649
:1002A000ED0F9D403D434560C568A5438C68B44053
:1002B0002C43C4604C68E4004ED52B4CA569012644
:1002C0003543A561A4699D0834400094274CAD00D6
:1002D0002F19BC689D072E0F0F25B540AC4309258B
:1002E000ED06A84201D1002514E0214DA84201D11C
:1002F00001250FE01F4DA84201D102250AE01E4D45
:10030000A84201D1032505E01C4DA84201D10425D6
:1003100000E00525B5402543BD60194C25684E68B1
:100320009543F60300D51543256065684E689543EF
:10033000B60300D515436560A56800E00CE04E6883
:100340009543F60200D51543A560E5684E689543D0
:10035000B60200D51543E5605B1C0A681446DA4016
:1003600000D066E7F8BD0000001002400000014028
:100370000004004800080048000C00480010004835
:100380000004014042690A4200D0090481617047BB
:10039000002A01D0816170478162704701488068FE
:1003A00070470000440000200248816802788918E4
:1003B000816070474400002010B506480168102293
:1003C00011430160002000F007F800F027F800203A
:1003D00010BD00000020024070B504460D4D7D2088
:1003E0002978C000FFF784FE01460B480068FFF73C
:1003F0007FFE00F007FB002809D1042C07D2002261
:100400002146401E00F01EF800206C6070BD0120E7
:1004100070BD0000440000205000002008B50848CE
:100420008169012211438161816911400091C26992
:1004300001040A43C261C0690840009008BD000081
:100440000010024010B501F09BFD10BDF8B50F463D
:1004500006005FD03D4D2868C007C00FB84209D2E2
:10046000286840084000384328602868C007C00F4B
:10047000B8424FD13068364C81070CD5400704D5BF
:10048000606807210902084360606068F0218843C2
:10049000B168084360603078C0072CD070680128CC
:1004A00010D0022811D0032812D021688907002912
:1004B00030DA61688908890001436160FFF76EFFE7
:1004C000009011E021688903F1E721688901EEE7D6
:1004D000616BC903EBE7FFF761FF0099411A1D4803
:1004E000814201D90320F8BD60680C210840716881
:1004F00089008842EFD12868C007C00FB8420BD9E5
:10050000286840084000384328602868C007C00FAA
:10051000B84201D00120F8BD3078400706D56068A8
:10052000072109028843F1680843606000F01EF863
:100530006168094A0906090F515CC840074908600B
:100540000020FFF749FF0020F8BD00000020024016
:100550000010024088130000A8240008500000206A
:1005600001480068704700005000002030B519A312
:100570000FCB89B06C460FC41AA30FCB0FC41D4A12
:1005800051680C200B4603401B48042B05D01B4D23
:10059000082B04D00C2B00D1284609B030BD8B02AB
:1005A0001B0F6C46E45CD26A04AB1207120FC9033E
:1005B0009A5C890F022901D0032901D0002301E0B0
:1005C000002328460021FFF7A9FD214601F0C0FCC9
:1005D000E3E7000002030405060708090A0B0C0DF7
:1005E0000E0F10100102030405060708090A0B0C80
:1005F0000D0E0F100010024000127A00006CDC0299
:10060000FEB5040070D02078F94EFA4DC00748D0EE
:1006100068680007800F01281FD068680007800FF6
:10062000022804D16868C003800F022815D06168D1
:10063000012919D001208004002901D0052917D0F3
:100640002968B143296029688143296060680028CE
:100650001BD0FFF7A3FE074613E02868800320D5D0
:1006600060680028CED01CE0286830432860EDE7A1
:10067000296801432960F7E7FFF790FEC01B642853
:1006800070D828688003F7D50BE0FFF787FE074690
:1006900004E0FFF783FEC01B6428F1D828688003BC
:1006A000F7D4207880073FD568680007800F14D002
:1006B00068680007800F022804D16868C003800FB3
:1006C00001280AD0E068002828681ED001210843CC
:1006D0002860FFF763FE07460CE0286880070CD50A
:1006E000E068012800D108E080E1FFF757FEC01B59
:1006F0000228C5D828688007F7D52868F8218843DC
:100700002169C900084328600EE0400840002860C5
:10071000FFF744FE074604E0FFF740FEC01B022837
:10072000AED828688007F7D42078000723D5E06981
:100730000028686A0FD0012108436862FFF72EFE87
:10074000074604E0FFF72AFEC01B022898D8686A13
:100750008007F7D50FE0400840006862FFF71EFEF3
:10076000074605E0C3E0FFF719FEC01B022887D843
:10077000686A8007F7D4207804274007002861DAE8
:1007800000200190E869C00008D4E969B806014377
:10079000E961E969014001200091019096480168F2
:1007A000C90511D40168821511430160FFF7F6FDF8
:1007B000009005E0FFF7F2FD0099401A642898D8F0
:1007C0008D480068C005F5D5A06801280AD000282A
:1007D00001D0052811D0286A400840002862286A04
:1007E000B84302E0286A012108432862A068002873
:1007F00012D0FFF7D3FD00900AE0286A3843286240
:10080000F0E7FFF7CBFD0099411A7C4881426ED892
:10081000286A8007F5D50DE0FFF7C0FD009006E0DF
:10082000FFF7BCFD0099411A744881425FD8286ADD
:100830008007F5D40198002804D0E9690120000759
:100840008143E9612078C00635D5606901280CD064
:10085000401D686B24D038436863686B40084000D3
:100860006863FFF79BFD074622E0686B38436863C7
:10087000686B012108436863FFF790FD074604E0B9
:10088000FFF78CFDC01B022831D8686B8007F7D5B5
:10089000686BF8218843A169C900084368630AE0CE
:1008A000B8436863F4E7FFF779FDC01B02281ED840
:1008B000686B8007F7D42078800637D56868000712
:1008C000800F032814D068680007800F022804D125
:1008D0006868C003800F03280AD0206A0028686B6C
:1008E00016D030436863FFF759FD06460CE062E01E
:1008F000686BC0031AD5206A012877D116E0FFF78C
:100900004DFD801B022856D8686BC003F7D50DE05B
:10091000B0436863FFF742FD064604E0FFF73EFD83
:10092000801B022847D8686BC003F7D4606A002890
:1009300066D069680907890F022942D00126360668
:100940000228286805D0B0432860FFF727FD044639
:1009500033E0B0432860FFF721FD074604E0FFF7CE
:100960001DFDC01B022826D828688001F7D4E86A3C
:10097000216B000900010843E862A16AE06A0843AC
:1009800069687B22D203914308436860286830433A
:100990002860FFF703FD044604E0FFF7FFFC001B9F
:1009A000022808D828688001F7D529E0FFF7F6FC6F
:1009B000001B022801D90320FEBD28688001F5D460
:1009C0001EE00128F8D06868E96A0322D203A36A0E
:1009D00002409A420AD10907226B090F914205D1C0
:1009E0000F2189040840E16A884209D00120FEBD38
:1009F0000000010000100240007000408813000059
:100A00000020F4E7094910B5401E884201D90120B1
:100A100010BD074C60610321081F01F0B1FA0020EE
:100A2000A06107202061002010BD0000FFFFFF0033
:100A300000E000E070B5040005D025462035287F91
:100A4000002802D006E0012070BD00206877204613
:100A500000F042F802202877206801260660A1688D
:100A60006068228A08436169520411430843A169FE
:100A70000843E1690843616A0843A16A08432168A1
:100A80000A6810430860207B012804D120680168AF
:100A9000320411430160616B206B0843A16B084372
:100AA0002168C0430861616B206B0843216888623C
:100AB0002168A06B0862206B00F042F9216808638E
:100AC00020684168890889004160216803208860A6
:100AD0002E77002070BD0000F0B587B004461421C9
:100AE0006846FFF763FB24492068884242D12348C7
:100AF0004269012109060A43426142690A4005929E
:100B00004269C9110A43426142690A400592426939
:100B100049000A434261406900240840059044208E
:100B20000090022603250920029469460196049547
:100B30000394C006FFF77AFB8820122700900294E6
:100B40006946019704950394B806FFF76FFB0120EF
:100B50000090029469460196049503940848FFF7B3
:100B600065FB029469460648019700960495039434
:100B7000FFF75CFB07B0F0BD0040024000100240F0
:100B800000040048FEE70000F0B587B01421684675
:100B9000FFF70CFB324842690121C9040A43426154
:100BA00042690A4005924269C9000A4342614269AA
:100BB0000A400592426949110A43426142690A406A
:100BC0000592426949000A43426142690A4005921E
:100BD000426989000A43426140690F270840BF010A
:100BE0000590002239461F48FFF7D2FB1E48032418
:100BF00000256A4631C269461A48FFF717FB009480
:100C000069461A4802950194FFF710FB0126092056
:100C100001956946C00600960295FFF707FB144848
:100C20006A4631C209206946C006FFF7FFFA11483B
:100C30006A4631C269461048FFF7F8FA02956946DC
:100C40000848009701960395FFF7F0FA04206A46DA
:100C500031C269460948FFF7E9FA07B0F0BD000064
:100C600000100240000800483FFC0000001400484B
:100C7000329F0000FCFF000000040048000C004808
:100C800010B501F073FB10BD10B511480F4901609C
:100C900001210907416009118160002101730122CE
:100CA00002614161520382610162A0224162C2611C
:100CB00002468162203211739122920002634163E5
:100CC00051008163FFF7B6FE10BD000000400240F6
:100CD000600000207047704770477047704708B544
:100CE000009002E00098401E009000980028F9D182
:100CF00008BD10B5FFF758FB01F0D8F810BD10B5CE
:100D000092B034216846FFF751FA00240F94022074
:100D100000900D9401200E940390102009940490EB
:100D200010946846FFF76CFC07200D900E940F940A
:100D3000002110940DA8FFF789FB12B010BD704779
:100D400070B5044600200F25014601238E002A4677
:100D5000B240224202D01A468A401043491C082958
:100D6000F4D370BD10B5084C0849606008480068AD
:100D7000FFF7BEF97D21C90048434821FFF7B8F9C4
:100D80002061002010BD0000D800002040420F006C
:100D900050000020F0B5002801D00220F0BD144919
:100DA0000023486814C80B72124983688B62C368B9
:100DB0000B630023083815E025880C2786687D43DF
:100DC000755DED06AD0F032D09D096680F6BB74327
:100DD0000F63002D03D155688E6AAE438E620C32CC
:100DE0005B1CA41C85899D42E6D80020F0BD000054
:100DF000D800002000400240F7B586B000210391E2
:100E000046494A6818214143551882CD083D029150
:100E1000002802D0022009B0F0BD002678E03C880E
:100E20000C20A96844430859C206920F032A69D1CD
:100E30000122104308510298007800F0A1F80090B8
:100E400020460A30AA6801460490105A0190009882
:100E50005052334900980A88824205D9A868062270
:100E600001599143091D06E049888142A8680AD8C2
:100E70000159062211430151A96800200834085382
:100E8000022003903EE0001900F08AF8002825D0E7
:100E90000798002807D0079A00990198904700907A
:100EA000AA6804995052A968201D085A009900F0B8
:100EB00061F8009000F05CF88007AA68410F1059B3
:100EC000062398430843105108980028009801D041
:100ED00008998847A9680834085313E0A968201DB9
:100EE000085A009900F046F82146AA680831505285
:100EF00000F03EF8AA68800711590623400F994375
:100F0000014311510298761C0C30F6B2BF1C0290BE
:100F1000A889B04283D803987DE70000D80000205C
:100F20002C00002010B5094CA06803210843A060E4
:100F300007480069FFF7D3FE6068800880006060A2
:100F4000206802210843206010BD000000400240DC
:100F5000D800002005490120CA68D20703D0C8681C
:100F6000800701D5022070470020704700400240F2
:100F700000207047401A00B27047401A80B2704794
:100F8000082805D2034980004018406B80B27047A2
:100F90000020704700400240012070470020704749
:100FA0000120704770470000F7B5002084B0074665
:100FB00004460191009006980126FF2801D9FF20E0
:100FC0000690049800250068029036E0029800F030
:100FD00031FF1F48C1680978202905D0212903D095
:100FE000222901D0232906D1406901680978022904
:100FF0001ED187898468002C02D00020421E15E093
:10100000002007B0F0BD0821615E002907D00099DB
:1010100003DA002903DC009205E0002901DA00264A
:1010200001E001210091401CC0B20C34B842EAD367
:10103000029808306D1CEDB2029004988088A84296
:10104000C4D8002E02D006980190DAE70198D8E7BC
:10105000D800002070B50446C0880021C207002ACD
:1010600002D08006C00E02D0A17261722CE0A07A7C
:101070000125002803D0607A00280DD017E013481E
:101080000369022293430361114B1B88A381036907
:1010900013430361A57261722146FF200C31F530C4
:1010A00000F0D8FE00280DD0607A00280CD0142261
:1010B0000A212046FFF778FF0146204600F00AF893
:1010C000002070BD6572F2E7012070BD00E000E015
:1010D000D8000020F3B5002785B00D463C460297A6
:1010E000FF2900D9FF250598FF21006800902846B8
:1010F0004840401C80B2039000203FE0009800F080
:1011000099FE2248C1680978202905D0212903D0F9
:10111000222901D0232908D14069016809780229D0
:1011200026D1878984681A480290002C2CD000268A
:101130001CE00821615EA088FFF71FFF0102A08864
:10114000A27900021018039A694350430818010A53
:10115000A171000CA0802046FFF720FF012802D1DA
:10116000029900208847761CF6B20C34BE42E0D3C8
:101170000098083000900198401CC0B2019005987A
:10118000818801988142B9D807B0F0BDD80000200D
:10119000851C0008F8B5A049A0484B6900229D684D
:1011A00042808280C280027042701A688023546834
:1011B0009C4354604E69B389032B6BD3002222E019
:1011C0000821695E002900DA00210227C75FBC46BA
:1011D000614508DD8788C780674687804180017840
:1011E000417002700CE00427C75FB94203DDC7807D
:1011F0008180427004E00627C75FB94200DDC180EC
:10120000521CD2B20C359342DAD875680422E978C0
:10121000825E4908491E91423CDCC1884788521AC7
:10122000791A077840787B435B004000181873698F
:1012300089B21F5E308B92B24843738B80B289189B
:101240000093FEF755FF002F02DD7900081802E039
:1012500079424900081A704900B2CA681278202AF7
:1012600019D0212A17D0C0B232686D4B6D492604BF
:101270006CD55678C7B2B74238D9BF1BFF2F35DAC5
:101280002F7BF619864218DDA87A8C438006800CE5
:1012900004435460B5E0009A002801DD801A03E0A1
:1012A000FF2301339A1A101800B2002801DA002037
:1012B000DAE7FF28D8DDFF20D6E70E26F441E41850
:1012C0001226554DF44154606E69A7043268BF0E72
:1012D00022D176688C43B67AB606B60C3443546095
:1012E0006A6901251268ED03AC4354604A4CC71D7E
:1012F0006669F83735686A78BA4273DD7668377B95
:10130000D219C71DF937BA4207DD68688843B17A38
:101310008906890C0843686073E06A680E26F2410A
:10132000D2181223DA416A60656996042B68B60EFA
:1013300067D18A436968897A8906890C0A435A60A9
:1013400061690123DB0309689A434AE05678C7B212
:10135000B7421FD2F71BFF2F1CDA2F7B3F18B74273
:1013600092DC0E26F441E41812262B4DF441546011
:101370006E69A7043268BF0E43D176688C43B67A93
:10138000B606B60C344354606A6901251268ED0351
:101390002C435460204C666935686A78D71DF8374D
:1013A00087421FDA7668FF32377B01323F18974257
:1013B000ABDC6A680E26F241D2181223DA416A6069
:1013C000656996042B68B60E1BD18A436968897AD1
:1013D0008906890C0A435A60616901230968DB03A5
:1013E0001A434A600C49C0B24A6908241268507016
:1013F0004A6953681268DB7AE31AD84093788342CB
:1014000001D10220F8BD90704869802200684168CF
:10141000114341600020F8BDD80000205400002096
:10142000000000FC003F0000F8B500F025FB2D4C4B
:101430000028606903D000273E4685682DE041689A
:101440000068497AC17060690029006802D00E21E5
:101450000170F8BD0D21FBE7698900910068C17832
:101460002148007981420AD128460099FFF794FD6E
:10147000002802D00098A8800CE0AE80F8BDA988B2
:101480000098081880B2A8800099884202D2AE80E5
:101490000D2022E07F1CFFB20C3560698189B942C2
:1014A000DAD80168C878002804D0401E0006000E73
:1014B000C870E3D160690D4A80680021128907E095
:1014C0008388D34083808671491C0681C9B20C3061
:1014D00063699B898B42F3D80220616909680870AF
:1014E000F8BD0000D80000202C000020540000208F
:1014F00030B500F0C1FA02250E4C002807D0606913
:1015000001214068007900F011FB002803D06069D8
:101510000068057030BD60690068C178002904D09A
:10152000491E0906090EC170F4D1002000F0AAFB83
:1015300030BD0000D800002030B500F09DFA022533
:10154000194C00280FD0606901214068807800F0B4
:10155000D7FA002860690AD040680021007800F0BE
:10156000CFFA002811D060690068057030BD0168AD
:10157000C878002804D0401E0006000EC870F5D1BF
:1015800061690A200968087030BD606941680068B7
:101590008979C17060690029006802D00721017053
:1015A00030BD0621FBE70000D800002008B500F0A0
:1015B00063FA184B002815D000F0AAF969460870A4
:1015C00008785F210840694608700878012815D01E
:1015D000022818D0042818D0082818D0002000F0BD
:1015E00051FB08BD58690168C878002804D0401E26
:1015F0000006000EC870F4D10D2000E002205969E9
:101600000968087008BD0620F9E70A20F7E70C20F2
:10161000F5E70000D800002030B500F02DFA0A25CB
:10162000194C00281BD0606901214068C07800F087
:1016300051FA002813D0606900214068407800F01A
:1016400049FA002860690ED041680068097AC170C3
:1016500060690029006814D00421017030BD606900
:101660000068057030BD0168C878002804D0401EAD
:101670000006000EC870F5D161690620096808707F
:1016800030BD0221E9E70000D800002030B500F0AD
:10169000F3F90225194C00280FD060690121406838
:1016A000807800F02DFA002860690AD04068002197
:1016B000007800F025FA002810D0606900680570F5
:1016C00030BD41680068C979C1706069002900684F
:1016D00002D00B21017030BD0A21FBE7606901686F
:1016E000C878002804D0401E0006000EC870F2D151
:1016F000616906200968087030BD0000D80000202C
:1017000030B500F0B9F90C25194C00281BD06069E0
:1017100001214068C07800F0DDF9002813D060692D
:1017200000214068407800F0D5F9002860690ED0AB
:1017300041680068097AC17060690029006814D0A6
:101740000521017030BD60690068057030BD016819
:10175000C878002804D0401E0006000EC870F5D1DD
:10176000616906200968087030BD0221E9E70000C0
:10177000D800002030B500F07FF90A25134C00286E
:101780001ED0606901214068C07800F0A3F90028EC
:1017900016D0606900214068407800F09BF900286D
:1017A00012D060690068C178002904D0491E09067A
:1017B000090EC17003D1022061690968087030BD4B
:1017C00060690068057030BD0620F5E7D80000208C
:1017D00030B500F051F906250E4C002816D060698E
:1017E00000214068407800F075F900280ED060694B
:1017F0000168C878002804D0401E0006000EC8709A
:1018000003D1616902200968087030BD6069006811
:10181000057030BDD800002030B500F02DF90C2542
:10182000134C00281ED0606901214068C07800F088
:1018300051F9002816D0606900214068407800F016
:1018400049F9002812D060690068C178002904D0E5
:10185000491E0906090EC17003D102206169096899
:10186000087030BD60690068057030BD0620F5E77E
:10187000D800002010B500F0FFF8234C0028606964
:1018800019D040680121C07800F024F900281ED04A
:10189000606900214068407800F01CF90028606908
:1018A000416822D00068097AC17060690029006827
:1018B00027D0042121E041680068497AC17060693D
:1018C0000029006801D0112117E00D2115E0E06822
:1018D0000078202806D0222804D00C48C0688068F0
:1018E000804710BD6069006AF9E700688979C170B6
:1018F00060690029006802D00821017010BD06212E
:10190000FBE70221F9E70000D80000202C000020AE
:1019100007490020CA681278202A01D0222A05D15E
:101920004869C16900680078C000085C7047000021
:10193000D800002010B51A480A22416949680A7087
:10194000436905215B685970436928215B68997078
:10195000446923236468E37043695B6819714169D2
:10196000032349684B71446902216468A171446989
:101970006468E171446964682172416949684B7225
:10198000436907215B68D972416949680A734069F4
:10199000012140688172002000F074F910BD000040
:1019A000D800002070B500F07DF8114C002804D05C
:1019B000606900680078132818D1606901680D78A3
:1019C000E1680978202901D0222904D1C169E80001
:1019D000001D085880476069402100680278AA42CB
:1019E000426801D18A4300E00A43426070BD0000B2
:1019F000D800002010B5084A5069816800200346CD
:101A000004E08B80401C8B71C0B20C315469A489F6
:101A10008442F6D810BD0000D800002010B5094956
:101A20004B6900219A689B8908E00824145F84426E
:101A300001DD022010BD491CC9B20C328B42F4D822
:101A4000002010BDD800002030B50A4C182561696F
:101A500080078A680021C00E06E01368491CAB436A
:101A600003431360C9B20C3263699B898B42F4D87B
:101A700030BD0000D800002009484269002091686C
:101A8000928909E00B785B079B0F9B0701D500202B
:101A90007047401CC0B20C318242F3D8022070471C
:101AA000D800002030B50A4B586982680220002116
:101AB00009E01468E50703D06008400010600020CA
:101AC000491CC9B20C325C69A4898C42F1D830BD82
:101AD000D800002010B509494B6900219A689B89FC
:101AE00008E00824145F844201DD002010BD491C79
:101AF000C9B20C328B42F4D8022010BDD8000020AD
:101B000010B509494B6900219A689B8908E00824AF
:101B1000145F844201DB002010BD491CC9B20C32A5
:101B20008B42F4D8022010BDD800002010B50A491D
:101B30004C6900214342A089A26808E00824145F90
:101B40009C4201DC002010BD491CC9B20C32884205
:101B5000F4D8022010BD0000D800002010B5FFF717
:101B60008BFF1C4C002860691AD0406801218078E6
:101B7000FFF7C6FF002860691ED04068002140784A
:101B8000FFF74CFF00280AD1606941680068097AB4
:101B9000C1706069002900681AD00321017010BD6E
:101BA00041680068497AC17060690029006801D005
:101BB0001021F3E70D21F1E741680068C979C17090
:101BC00060690029006801D00B21E7E70A21E5E7F9
:101BD0000221E3E7D800002010B5FFF74DFF284CA5
:101BE0000028606922D0406801218078FFF788FFD3
:101BF0000028606926D0406800210078FFF780FF48
:101C0000002860692AD0406801210079FFF78EFF23
:101C100000280AD16169486809684079C87061691B
:101C20000028096827D00120087010BD41680068AD
:101C3000497AC17060690029006801D00F2116E05F
:101C40000D2114E041680068C979C17060690029FC
:101C5000006801D00B210AE00A2108E04168006811
:101C60008979C17060690029006802D0072101707C
:101C700010BD0621FBE7002000F004F810BD0000B5
:101C8000D800002030B5134C054661690020096872
:101C90004022087060690068416811434160032078
:101CA000FFF7D2FE0C490D4A8888042805D0102879
:101CB00005D008208880032002E0022000E00420F4
:101CC00010810879616940190968C870FFF792FEB0
:101CD00030BD0000D80000202C000020540000205F
:101CE00010B5FFF7C9FE234C0028606919D0406881
:101CF0000121C078FFF7EEFE00281ED060690021A8
:101D000040684078FFF7E6FE00286069416822D00D
:101D10000068097AC17060690029006827D0052130
:101D200021E041680068497AC17060690029006853
:101D300001D0122117E00D2115E0E068007820287D
:101D400006D0222804D00C48C0688068804710BDA7
:101D50006069006AF9E700688979C17060690029E3
:101D6000006802D00921017010BD0621FBE70221A5
:101D7000F9E70000D80000202C000020F8B500276B
:101D80000668044607723D461FE0304600F052F8F0
:101D90003078202801D0222814D10E484069006AEA
:101DA000006880470B48406900680079400601D50B
:101DB0000120207207484069C16900680078C000AE
:101DC000085C07436D1CEDB20836A088A842DCD839
:101DD000E780F8BDD8000020F8B500270668044663
:101DE00007723D461FE0304600F024F83078202886
:101DF00001D0222814D10E484069006A406880470B
:101E00000B48406900680079400601D50120207226
:101E100007484069C16900680078C000085C074352
:101E20006D1CEDB20836A088A842DCD8E780F8BD6A
:101E3000D80000200649C8600278202A05D0212A4F
:101E400003D0222A01D0232A01D14068486170477B
:101E5000D800002070B5134A13690224A34313610C
:101E6000114B00281B8805D00D889D420D8806D88F
:101E70005D1B09E0106920431061022070BD00263F
:101E8000F643751BED186D1CADB2854205D30B8072
:101E9000106920431061002070BD1069204310615B
:101EA000012070BD00E000E0D80000200A490C4B82
:101EB0000888401C088009480288521C92B202809F
:101EC0009A4208D98A780023521CD2B28A703F2ADB
:101ED00000D98B7003807047D80000205E0000207E
:101EE000E70300000349CA691206FCD50149203105
:101EF000088170470048004010B50446002302E006
:101F0000FFF7F0FF5B1CE05C0028F9D110BD00007A
:101F10000348818803480160012141607047000047
:101F200020480040000000200FB410B504A9074B62
:101F300002AA039800F056F8044602A9002000F017
:101F4000F9F8204610BC08BC04B018473521000839
:101F5000F8B5040C8BB2264682B25E430D0C1046D7
:101F6000370C5843360480190021794116466E43D8
:101F7000370C36048019794126466E438919F8BD1D
:101F80008307FF22DB0E9A408907090E994000283B
:101F900008DB830809489B001B1818689043084316
:101FA000186070470007000F0838830804489B003A
:101FB0001B18D86990430843D861704700E400E0DB
:101FC00000ED00E002E008C8121F08C1002AFAD1A3
:101FD00070477047002001E001C1121F002AFBD1A9
:101FE00070470000FFB58DB00446002506E02528A7
:101FF0000AD0109A0F999047641C6D1C2078002815
:10200000F5D1284611B0F0BD00270121484A0097BC
:1020100000E00743641C23780846203B98401042A8
:10202000F7D120782E2817D1042007436078641C4C
:102030002A280CD10E98641C02C800910E900BE067
:1020400000990A22514330394018641C00902078CE
:10205000014630390929F3D920780028D1D06428E5
:1020600008D0692806D075281ED0109A0F9990477D
:102070006D1C5BE00A200E99019001C90E910028A9
:1020800002DA40422D2102E0390504D52B216A46AF
:102090001172012103E0F90704D02021F7E70BAE0C
:1020A0000B910DE00021FAE70A200E99019001C979
:1020B0000E91F7E70199FEF71BF83031761E31706B
:1020C0000028F7D103A8801B20300190780701D5A4
:1020D000009801E0012000900199884201DD401A3A
:1020E00000E000200027009006E002A8109AC05DE2
:1020F0000F9990476D1C7F1C0B988742F5DB04E01D
:10210000109A30200F9990476D1C0099481E00903E
:102110000029F5DC05E03078109A761C0F9990477D
:102120006D1C0199481E01900029F4DC641C65E7D0
:10213000092801000A68531C0B60107070470000EA
:102140001FB5FEF739F9FEF7DAFDFEF71DFDFEF7C4
:102150009BFDFEF795FD5D484269012149040A4354
:10216000426142690A400092426949000A43426161
:1021700042690A40009243694A001343436143693C
:1021800013400093C2690A43C261514C2068206029
:102190002068504908432060206A1121090408433F
:1021A0002062FEF7DDF9E1214902FDF7A1FF0146BA
:1021B0004948C16001682C22114301600168012770
:1021C0003943016045498004086045490868FF2299
:1021D00012029043BA0310430860424E424D00F091
:1021E00087F800280FD0306800780A281FD0002018
:1021F000A8600246FF2101312046FEF7C9F80022FF
:102200000121490250E0E86832210390FDF770FF98
:102210000398401CE860002905D10020A8604021F7
:102220002046FEF7AFF80120FDF7EEFF44E03068EE
:102230008078401F2D2810D2AF6001221102204665
:10224000FEF7A6F8002280212046FEF7A1F8012122
:10225000002249022046FEF79BF830688078323829
:102260001E2812D20220A860012280212046FEF7FB
:102270008FF8FF21002201312046FEF789F8012165
:10228000002249022046FEF783F8306880785038F3
:10229000282811D20320A860012251022046FEF70F
:1022A00077F80022FF2101312046FEF771F8002265
:1022B00080212046FEF76CF8AA680CA16846FFF75B
:1022C00033FE6846FFF718FE89E700000010024061
:1022D00000080048005A05000048004000E100E006
:1022E0001CE400E07C2400080000002025640900B4
:1022F00070B51D4C0025A068002806D12079FEF796
:1023000049FDFEF70FFE0120A060FEF723FE002628
:10231000002808D1002220791146FEF76DFD606883
:10232000A660401C60606068002811D00E4866609E
:102330000C30A660FFF750FD0B480C30FEF732FE64
:10234000FF200949F530FFF785FD002802D001255F
:10235000284670BD04480C30FEF77CFE002801D0F2
:102360000325F5E70225F3E71000002010B5034828
:10237000FFF704FD0248FEF7F5FC10BD1C0000202D
:10238000B02300080000000004000000010000006D
:1023900001000000400000000200000002000000F8
:1023A0000002000004000000000001000200000024
:1023B00084230008A8230008A400002003000000D4
:1023C000440200000700000010000000291400086B
:1023D00030000000F114000801000000D91B0008C3
:1023E00023000000D1170008250000007517000821
:1023F0002900000019180008020000005D1B0008F9
:10240000220000008D1600082600000019160008A2
:102410002A000000011700080400000075180008D9
:10242000240000003915000808000000E11C000825
:1024300080000000D50C0008B0000000AD150008B9
:10244000A1000000AD150008A2000000AD150008B5
:10245000A4000000AD150008A8000000AD1500089C
:1024600040000000D70C000835190008A519000825
:102470009511000800010001000100003C0000204F
:10248000C8000020A40000200300000074240008FD
:10249000B824000880008000C823000868240008D1
:1024A000200000007C240008000000000000000064
:1024B00001020304060708090000A0FFA000200095
:1024C000000060FF20FF600000000000EC24000816
:1024D0000000002060000000C41F00084C25000818
:1024E0006000002090040000D41F000800000000DD
:1024F00000000000000000000000000000000000DC
:102500000000000000000000A024000801000000FE
:1025100000000000000000000A00FF1F040000008F
:10252000C823000868240008000000000000000024
:1025300001000000040000000000000000127A000A
:0C2540000000000000000000000000008F
:04000005080000C12E
:00000001FF
