:020000040800F2
:1000000020040020D5000008430A0008410A000827
:1000100000000000000000000000000000000000E0
:10002000000000000000000000000000470A000877
:100030000000000000000000450A0008490A00080E
:10004000E7000008E7000008E7000008E7000008F4
:10005000E7000008E7000008E7000008E7000008E4
:10006000B10A0008E7000008E7000008E700000800
:10007000E7000008E7000008E7000008E7000008C4
:10008000E7000008E7000008E7000008E7000008B4
:10009000E7000008E7000008E7000008E7000008A4
:1000A000E7000008E7000008E7000008E700000894
:1000B000E7000008110B0008E7000008E70000084F
:1000C0000348854600F08EF800480047590D0008A7
:1000D000200400200448804704480047FEE7FEE76C
:1000E000FEE7FEE7FEE7FEE7AD0A0008C1000008F4
:1000F00030B50B46014600202022012409E00D46C0
:10010000D5409D4205D31D469540491B2546954047
:1001100040191546521E002DF1DC30BDF0B51FB45C
:100120000646002082B005464024019100901BE065
:10013000019922460F46304600F020F8049A059BAC
:10014000801A994110D310461946224600F039F81A
:10015000361A8F410197224601200021009F00F0AE
:1001600030F838184D4100902046641E0028DFDC2E
:10017000019B00982946324607B0F0BD10B5202AF1
:1001800004DB0846203AD040002110BD0B46D34086
:10019000D0402024A21A91400843194610BD0346BE
:1001A0000B439B0703D009E008C9121F08C0042AAB
:1001B000FAD203E00B780370401C491C521EF9D29E
:1001C000704710B5202A04DB0146203A91400020F8
:1001D00010BD914020239C1A0346E34019439040F0
:1001E00010BD0000064C0125064E05E0E36807CC73
:1001F0002B430C3C98471034B442F7D3FFF764FF0D
:100200001C1000083C10000870B5044600F0C0F84F
:100210000546601C02D004480078241800F0B8F8A5
:10022000401BA042FAD370BD10000020F8B5002397
:1002300093E0224601249C40A44622407ED04C6894
:10024000022C01D0122C0CD1DC08A40027183C6A27
:100250005D07ED0E0F26AE40B4430E69AE40264357
:100260003E6205685E000324B4400F79A543BF07D2
:10027000BF0FB7402F4307604D68012D05D0022DF9
:1002800003D0112D01D0122D0ED18568CF68A54362
:10029000B7402F43876047686546AF430D79ED0649
:1002A000ED0F9D403D434560C568A5438C68B44053
:1002B0002C43C4604C68E4004ED52B4CA569012644
:1002C0003543A561A4699D0834400094274CAD00D6
:1002D0002F19BC689D072E0F0F25B540AC4309258B
:1002E000ED06A84201D1002514E0214DA84201D11C
:1002F00001250FE01F4DA84201D102250AE01E4D45
:10030000A84201D1032505E01C4DA84201D10425D6
:1003100000E00525B5402543BD60194C25684E68B1
:100320009543F60300D51543256065684E689543EF
:10033000B60300D515436560A56800E00CE04E6883
:100340009543F60200D51543A560E5684E689543D0
:10035000B60200D51543E5605B1C0A681446DA4016
:1003600000D066E7F8BD0000001002400000014028
:100370000004004800080048000C00480010004835
:1003800000040140002A01D08161704781627047FA
:100390000148806870470000100000200248816812
:1003A00002788918816070471000002010B5064857
:1003B0000168102211430160002000F007F800F0EE
:1003C00027F8002010BD00000020024070B5044650
:1003D0000D4D7D202978C000FFF78AFE01460B48AD
:1003E0000068FFF785FE00F013FB002809D1042CFC
:1003F00007D200222146401E00F01EF800206C604B
:1004000070BD012070BD0000100000201C00002005
:1004100008B5084881690122114381618169114051
:100420000091C26901040A43C261C069084000909A
:1004300008BD00000010024010B500F0ADFB10BD7B
:10044000F8B50F4606005FD03D4D2868C007C00FC5
:10045000B84209D22868400840003843286028681C
:10046000C007C00FB8424FD13068364C81070CD559
:10047000400704D56068072109020843606060688E
:10048000F0218843B168084360603078C0072CD001
:100490007068012810D0022811D0032812D02168DA
:1004A0008907002930DA61688908890001436160A1
:1004B000FFF76EFF009011E021688903F1E72168E2
:1004C0008901EEE7616BC903EBE7FFF761FF009974
:1004D000411A1D48814201D90320F8BD60680C21F2
:1004E0000840716889008842EFD12868C007C00FB2
:1004F000B8420BD928684008400038432860286873
:10050000C007C00FB84201D00120F8BD30784007C5
:1005100006D56068072109028843F16808436060D6
:1005200000F01EF86168094A0906090F515CC840CD
:10053000074908600020FFF749FF0020F8BD0000D0
:100540000020024000100240881300000C10000838
:100550001C00002001480068704700001C000020BB
:1005600030B519A30FCB89B06C460FC41AA30FCBBB
:100570000FC41D4A51680C200B4603401B48042B36
:1005800005D01B4D082B04D00C2B00D1284609B0F8
:1005900030BD8B021B0F6C46E45CD26A04AB1207C1
:1005A000120FC9039A5C890F022901D0032901D0D7
:1005B000002301E0002328460021FFF7AFFD21467C
:1005C00000F0C6FAE3E70000020304050607080985
:1005D0000A0B0C0D0E0F101001020304050607088C
:1005E000090A0B0C0D0E0F100010024000127A00C9
:1005F000006CDC02FEB5040070D02078F94EFA4D94
:10060000C00748D068680007800F01281FD06868BD
:100610000007800F022804D16868C003800F0228F9
:1006200015D06168012919D001208004002901D06A
:10063000052917D02968B1432960296881432960B9
:10064000606800281BD0FFF7A3FE074613E0286868
:10065000800320D560680028CED01CE02868304395
:100660002860EDE7296801432960F7E7FFF790FE6E
:10067000C01B642870D828688003F7D50BE0FFF70B
:1006800087FE074604E0FFF783FEC01B6428F1D80D
:1006900028688003F7D4207880073FD56868000772
:1006A000800F14D068680007800F022804D16868A2
:1006B000C003800F01280AD0E068002828681ED0F7
:1006C000012108432860FFF763FE07460CE0286815
:1006D00080070CD5E068012800D108E080E1FFF731
:1006E00057FEC01B0228C5D828688007F7D52868A0
:1006F000F82188432169C900084328600EE04008BA
:1007000040002860FFF744FE074604E0FFF740FE84
:10071000C01B0228AED828688007F7D420780007CD
:1007200023D5E0690028686A0FD001210843686278
:10073000FFF72EFE074604E0FFF72AFEC01B022843
:1007400098D8686A8007F7D50FE0400840006862D3
:10075000FFF71EFE074605E0C3E0FFF719FEC01BCA
:10076000022887D8686A8007F7D4207804274007D2
:10077000002861DA00200190E869C00008D4E96926
:10078000B8060143E961E969014001200091019047
:1007900096480168C90511D40168821511430160AA
:1007A000FFF7F6FD009005E0FFF7F2FD0099401A13
:1007B000642898D88D480068C005F5D5A068012840
:1007C0000AD0002801D0052811D0286A400840002E
:1007D0002862286AB84302E0286A01210843286297
:1007E000A068002812D0FFF7D3FD00900AE0286A25
:1007F00038432862F0E7FFF7CBFD0099411A7C48A7
:1008000081426ED8286A8007F5D50DE0FFF7C0FD5C
:10081000009006E0FFF7BCFD0099411A7448814240
:100820005FD8286A8007F5D40198002804D0E969C8
:10083000012000078143E9612078C00635D5606951
:1008400001280CD0401D686B24D038436863686B66
:10085000400840006863FFF79BFD074622E0686B95
:1008600038436863686B012108436863FFF790FDB4
:10087000074604E0FFF78CFDC01B022831D8686BE7
:100880008007F7D5686BF8218843A169C900084340
:1008900068630AE0B8436863F4E7FFF779FDC01BBB
:1008A00002281ED8686B8007F7D42078800637D5D9
:1008B00068680007800F032814D068680007800F5D
:1008C000022804D16868C003800F03280AD0206A78
:1008D0000028686B16D030436863FFF759FD064661
:1008E0000CE062E0686BC0031AD5206A012877D15A
:1008F00016E0FFF74DFD801B022856D8686BC00339
:10090000F7D50DE0B0436863FFF742FD064604E00B
:10091000FFF73EFD801B022847D8686BC003F7D461
:10092000606A002866D069680907890F022942D0E9
:10093000012636060228286805D0B0432860FFF754
:1009400027FD044633E0B0432860FFF721FD07464A
:1009500004E0FFF71DFDC01B022826D8286880018F
:10096000F7D4E86A216B000900010843E862A16A34
:10097000E06A084369687B22D203914308436860B8
:10098000286830432860FFF703FD044604E0FFF7C2
:10099000FFFC001B022808D828688001F7D529E051
:1009A000FFF7F6FC001B022801D90320FEBD2868D2
:1009B0008001F5D41EE00128F8D06868E96A0322B6
:1009C000D203A36A02409A420AD10907226B090F97
:1009D000914205D10F2189040840E16A884209D07B
:1009E0000120FEBD00000100001002400070004028
:1009F000881300000020F4E7042204490428086951
:100A000002D09043086170471043FBE700E000E02C
:100A1000094910B5401E884201D9012010BD074C7C
:100A200060610321081F00F0B7F80020A0610720D3
:100A30002061002010BD0000FFFFFF0000E000E08B
:100A4000FEE770477047704710B5FFF7A7FC10BD71
:100A500010B592B0022000900120039000241020D5
:100A6000099404906846FFF7C5FD002800D0FEE712
:100A700007200D900E940F94002110940DA8FFF7FD
:100A8000DFFC002800D0FEE7FFF764FD7D21C900F0
:100A9000FFF72EFBFFF7BCFF0420FFF7ADFF00229E
:100AA0001146501EFFF7C8FC12B010BD7047000081
:100AB0003EB5094C606B094DE860EA6808A16846DC
:100AC00000F032F8684600F017F801202860A068AE
:100AD00003210843A0603EBD00400240000000200A
:100AE000256409000349CA691206FCD50149203171
:100AF000088170470048004010B50446002302E01A
:100B0000FFF7F0FF5B1CE05C0028F9D110BD00008E
:100B100003488188034841600121816070470000DB
:100B200020480040000000200FB410B504A9074B76
:100B300002AA039800F062F8044602A9002000F01F
:100B400005F9204610BC08BC04B018474D0D00083C
:100B5000F8B5040C8BB2264682B25E430D0C1046EB
:100B6000370C5843360480190021794116466E43EC
:100B7000370C36048019794126466E438919F8BD31
:100B8000002805DBC106C90E012088400149086024
:100B90007047000000E100E08307FF22DB0E9A406F
:100BA0008907090E9940002808DB830809489B0043
:100BB0001B18186890430843186070470007000F1F
:100BC0000838830804489B001B18D86990430843E1
:100BD000D861704700E400E000ED00E002E008C8E2
:100BE000121F08C1002AFAD170477047002001E0A7
:100BF00001C1121F002AFBD170470000FFB58DB064
:100C00000446002506E025280AD0109A0F9990473F
:100C1000641C6D1C20780028F5D1284611B0F0BD69
:100C200000270121484A009700E00743641C23780D
:100C30000846203B98401042F7D120782E2817D143
:100C4000042007436078641C2A280CD10E98641C89
:100C500002C800910E900BE000990A2251433039EE
:100C60004018641C00902078014630390929F3D9D6
:100C700020780028D1D0642808D0692806D07528AB
:100C80001ED0109A0F9990476D1C5BE00A200E99B8
:100C9000019001C90E91002802DA40422D2102E0A4
:100CA000390504D52B216A461172012103E0F907A9
:100CB00004D02021F7E70BAE0B910DE00021FAE7FD
:100CC0000A200E99019001C90E91F7E70199FFF7EB
:100CD0000FFA3031761E31700028F7D103A8801B3F
:100CE00020300190780701D5009801E001200090A4
:100CF0000199884201DD401A00E0002000270090A1
:100D000006E002A8109AC05D0F9990476D1C7F1CE9
:100D10000B988742F5DB04E0109A30200F9990473A
:100D20006D1C0099481E00900029F5DC05E0307824
:100D3000109A761C0F9990476D1C0199481E0190DE
:100D40000029F4DC641C65E7092801000A68531CCB
:100D50000B6010707047000086B0FFF727FBFFF7AD
:100D600077FE5E484269012149040A4342614269B3
:100D70000A400592426949000A43426142690A40B9
:100D8000059243694A001343436143691340059345
:100D900043698A0113434361436913400593C26960
:100DA0000A43C26114224E496846FFF7F8F94D4ED6
:100DB00069463046FFF73AFA002240213046FFF7F5
:100DC000E1FA002280213046FFF7DCFAFF21002201
:100DD00001313046FFF7D6FA0121002249023046A0
:100DE000FFF7D0FA3068306030683F490843306020
:100DF000306A1121090408433062FFF7ABFBE1219F
:100E00004902FFF775F901463848C16001682C2294
:100E10001143016001680122114301601D20FFF7A9
:100E2000AFFE33490868FF22120290430122920369
:100E30001043086000F066F82E4C2F4D10272068F4
:100E4000B84320600120FFF7DFF9206838432060B5
:100E5000216802200143216029680029FCD000217B
:100E60002960216801432160E8687D2149018842A9
:100E700002D80122402114E0E8687D2189018842DE
:100E800002D8012280210CE0E8681C49884202D87F
:100E90000122110205E0E8681949884204D80122BC
:100EA00051023046FFF76EFA6420FFF7ADF90022D9
:100EB00040213046FFF766FA002280213046FFF7D6
:100EC00061FAFF21002201313046FFF75BFA012170
:100ED000002249023046FFF755FAB0E70010024001
:100EE000D00F000800080048005A050000480040E4
:100EF0001CE400E00040024000000020E02E000062
:100F0000FF3F000030B58BB014222E496846FFF732
:100F100046F92C491422143105A8FFF740F9092598
:100F2000ED0669462846FFF781F905A92846FFF72F
:100F30007DF9264C24482060286AF02188432862E5
:100F4000286A302108432862286A0F210902884351
:100F50002862286A0321090208432862286A0009D6
:100F600000012862286A032108432862286A0F21A9
:100F7000090388432862286A032109030843286279
:100F800001256560216A042001432162216A294309
:100F90002162A16A02221143A162216B29432163CC
:100FA0002169090909012161A1690143A161A069C0
:100FB0002843A0610820FFF7E3FD20682843206054
:100FC0000BB030BDE40F0008C150001100400240DA
:100FD000C00300000100000000000000000000004D
:100FE00000000000020000001200000000000000ED
:100FF00001000000000000000D00000002000000E1
:1010000000000000010000000000000000000000DF
:101010000000000001020304060708093C10000854
:101020000000002020000000DC0B00085C1000081D
:101030002000002000040000EC0B0008000000006D
:10104000000000000000000000000000010000009F
:0C105000040000000000000000127A0004
:04000005080000C12E
:00000001FF
